{
  "_format": "hh-sol-artifact-1",
  "contractName": "DarkIce",
  "sourceName": "contracts/DarkIce.sol",
  "abi": [
    {
      "inputs": [],
      "stateMutability": "nonpayable",
      "type": "constructor"
    },
    {
      "anonymous": false,
      "inputs": [
        {
          "indexed": true,
          "internalType": "address",
          "name": "owner",
          "type": "address"
        },
        {
          "indexed": true,
          "internalType": "address",
          "name": "spender",
          "type": "address"
        },
        {
          "indexed": false,
          "internalType": "uint256",
          "name": "value",
          "type": "uint256"
        }
      ],
      "name": "Approval",
      "type": "event"
    },
    {
      "anonymous": false,
      "inputs": [
        {
          "indexed": true,
          "internalType": "address",
          "name": "from",
          "type": "address"
        },
        {
          "indexed": true,
          "internalType": "address",
          "name": "to",
          "type": "address"
        },
        {
          "indexed": false,
          "internalType": "uint256",
          "name": "value",
          "type": "uint256"
        }
      ],
      "name": "Transfer",
      "type": "event"
    },
    {
      "anonymous": false,
      "inputs": [
        {
          "indexed": true,
          "internalType": "address",
          "name": "from",
          "type": "address"
        },
        {
          "indexed": true,
          "internalType": "address",
          "name": "to",
          "type": "address"
        },
        {
          "indexed": false,
          "internalType": "uint256",
          "name": "reward",
          "type": "uint256"
        }
      ],
      "name": "Work",
      "type": "event"
    },
    {
      "inputs": [
        {
          "internalType": "address",
          "name": "",
          "type": "address"
        }
      ],
      "name": "accumulatedRewards",
      "outputs": [
        {
          "internalType": "uint256",
          "name": "",
          "type": "uint256"
        }
      ],
      "stateMutability": "view",
      "type": "function"
    },
    {
      "inputs": [
        {
          "internalType": "address",
          "name": "",
          "type": "address"
        },
        {
          "internalType": "address",
          "name": "",
          "type": "address"
        }
      ],
      "name": "allowance",
      "outputs": [
        {
          "internalType": "uint256",
          "name": "",
          "type": "uint256"
        }
      ],
      "stateMutability": "view",
      "type": "function"
    },
    {
      "inputs": [
        {
          "internalType": "address",
          "name": "spender",
          "type": "address"
        },
        {
          "internalType": "uint256",
          "name": "value",
          "type": "uint256"
        }
      ],
      "name": "approve",
      "outputs": [
        {
          "internalType": "bool",
          "name": "",
          "type": "bool"
        }
      ],
      "stateMutability": "nonpayable",
      "type": "function"
    },
    {
      "inputs": [
        {
          "internalType": "address",
          "name": "owner",
          "type": "address"
        }
      ],
      "name": "balanceOf",
      "outputs": [
        {
          "internalType": "uint256",
          "name": "",
          "type": "uint256"
        }
      ],
      "stateMutability": "view",
      "type": "function"
    },
    {
      "inputs": [
        {
          "internalType": "address",
          "name": "",
          "type": "address"
        }
      ],
      "name": "balances",
      "outputs": [
        {
          "internalType": "uint256",
          "name": "",
          "type": "uint256"
        }
      ],
      "stateMutability": "view",
      "type": "function"
    },
    {
      "inputs": [
        {
          "internalType": "address",
          "name": "playerAddress",
          "type": "address"
        }
      ],
      "name": "canWork",
      "outputs": [
        {
          "internalType": "bool",
          "name": "",
          "type": "bool"
        }
      ],
      "stateMutability": "view",
      "type": "function"
    },
    {
      "inputs": [],
      "name": "claimReward",
      "outputs": [
        {
          "internalType": "bool",
          "name": "",
          "type": "bool"
        }
      ],
      "stateMutability": "nonpayable",
      "type": "function"
    },
    {
      "inputs": [],
      "name": "contractAddress",
      "outputs": [
        {
          "internalType": "address",
          "name": "",
          "type": "address"
        }
      ],
      "stateMutability": "view",
      "type": "function"
    },
    {
      "inputs": [],
      "name": "currentServerDay",
      "outputs": [
        {
          "internalType": "uint256",
          "name": "",
          "type": "uint256"
        }
      ],
      "stateMutability": "view",
      "type": "function"
    },
    {
      "inputs": [],
      "name": "decimals",
      "outputs": [
        {
          "internalType": "uint256",
          "name": "",
          "type": "uint256"
        }
      ],
      "stateMutability": "view",
      "type": "function"
    },
    {
      "inputs": [],
      "name": "devResetWork",
      "outputs": [
        {
          "internalType": "bool",
          "name": "",
          "type": "bool"
        }
      ],
      "stateMutability": "nonpayable",
      "type": "function"
    },
    {
      "inputs": [],
      "name": "founderAddress",
      "outputs": [
        {
          "internalType": "address",
          "name": "",
          "type": "address"
        }
      ],
      "stateMutability": "view",
      "type": "function"
    },
    {
      "inputs": [],
      "name": "getUnixDay",
      "outputs": [
        {
          "internalType": "uint256",
          "name": "",
          "type": "uint256"
        }
      ],
      "stateMutability": "view",
      "type": "function"
    },
    {
      "inputs": [],
      "name": "name",
      "outputs": [
        {
          "internalType": "string",
          "name": "",
          "type": "string"
        }
      ],
      "stateMutability": "view",
      "type": "function"
    },
    {
      "inputs": [
        {
          "internalType": "address",
          "name": "",
          "type": "address"
        }
      ],
      "name": "players",
      "outputs": [
        {
          "internalType": "uint32",
          "name": "level",
          "type": "uint32"
        },
        {
          "internalType": "uint32",
          "name": "economicLevel",
          "type": "uint32"
        },
        {
          "internalType": "uint256",
          "name": "lastWorked",
          "type": "uint256"
        }
      ],
      "stateMutability": "view",
      "type": "function"
    },
    {
      "inputs": [],
      "name": "selfDestroy",
      "outputs": [],
      "stateMutability": "nonpayable",
      "type": "function"
    },
    {
      "inputs": [],
      "name": "symbol",
      "outputs": [
        {
          "internalType": "string",
          "name": "",
          "type": "string"
        }
      ],
      "stateMutability": "view",
      "type": "function"
    },
    {
      "inputs": [],
      "name": "totalSupply",
      "outputs": [
        {
          "internalType": "uint256",
          "name": "",
          "type": "uint256"
        }
      ],
      "stateMutability": "view",
      "type": "function"
    },
    {
      "inputs": [
        {
          "internalType": "address",
          "name": "to",
          "type": "address"
        },
        {
          "internalType": "uint256",
          "name": "value",
          "type": "uint256"
        }
      ],
      "name": "transfer",
      "outputs": [
        {
          "internalType": "bool",
          "name": "",
          "type": "bool"
        }
      ],
      "stateMutability": "nonpayable",
      "type": "function"
    },
    {
      "inputs": [
        {
          "internalType": "address",
          "name": "from",
          "type": "address"
        },
        {
          "internalType": "address",
          "name": "to",
          "type": "address"
        },
        {
          "internalType": "uint256",
          "name": "value",
          "type": "uint256"
        }
      ],
      "name": "transferFrom",
      "outputs": [
        {
          "internalType": "bool",
          "name": "",
          "type": "bool"
        }
      ],
      "stateMutability": "nonpayable",
      "type": "function"
    },
    {
      "inputs": [],
      "name": "work",
      "outputs": [
        {
          "internalType": "bool",
          "name": "",
          "type": "bool"
        }
      ],
      "stateMutability": "nonpayable",
      "type": "function"
    }
  ],
  "bytecode": "0x60806040526040518060400160405280600981526020017f46726f737450756e6b0000000000000000000000000000000000000000000000815250600090805190602001906200005192919062000373565b506040518060400160405280600781526020017f4441524b49434500000000000000000000000000000000000000000000000000815250600190805190602001906200009f92919062000373565b5030600260006101000a81548173ffffffffffffffffffffffffffffffffffffffff021916908373ffffffffffffffffffffffffffffffffffffffff1602179055506012600355600354600a620000f79190620004e4565b620f424062000107919062000621565b60045533600560006101000a81548173ffffffffffffffffffffffffffffffffffffffff021916908373ffffffffffffffffffffffffffffffffffffffff1602179055503480156200015857600080fd5b503073ffffffffffffffffffffffffffffffffffffffff16600073ffffffffffffffffffffffffffffffffffffffff167fddf252ad1be2c89b69c2b068fc378daa952ba7f163c4a11628f55a4df523b3ef6064604b600454620001bc919062000621565b620001c8919062000451565b604051620001d7919062000434565b60405180910390a36064604b600454620001f2919062000621565b620001fe919062000451565b600760003073ffffffffffffffffffffffffffffffffffffffff1673ffffffffffffffffffffffffffffffffffffffff16815260200190815260200160002081905550600560009054906101000a900473ffffffffffffffffffffffffffffffffffffffff1673ffffffffffffffffffffffffffffffffffffffff16600073ffffffffffffffffffffffffffffffffffffffff167fddf252ad1be2c89b69c2b068fc378daa952ba7f163c4a11628f55a4df523b3ef60646019600454620002c6919062000621565b620002d2919062000451565b604051620002e1919062000434565b60405180910390a360646019600454620002fc919062000621565b62000308919062000451565b60076000600560009054906101000a900473ffffffffffffffffffffffffffffffffffffffff1673ffffffffffffffffffffffffffffffffffffffff1673ffffffffffffffffffffffffffffffffffffffff168152602001908152602001600020819055506200075c565b82805462000381906200068c565b90600052602060002090601f016020900481019282620003a55760008555620003f1565b82601f10620003c057805160ff1916838001178555620003f1565b82800160010185558215620003f1579182015b82811115620003f0578251825591602001919060010190620003d3565b5b50905062000400919062000404565b5090565b5b808211156200041f57600081600090555060010162000405565b5090565b6200042e8162000682565b82525050565b60006020820190506200044b600083018462000423565b92915050565b60006200045e8262000682565b91506200046b8362000682565b9250826200047e576200047d620006f1565b5b828204905092915050565b6000808291508390505b6001851115620004db57808604811115620004b357620004b2620006c2565b5b6001851615620004c35780820291505b8081029050620004d3856200074f565b945062000493565b94509492505050565b6000620004f18262000682565b9150620004fe8362000682565b92506200052d7fffffffffffffffffffffffffffffffffffffffffffffffffffffffffffffffff848462000535565b905092915050565b6000826200054757600190506200061a565b816200055757600090506200061a565b81600181146200057057600281146200057b57620005b1565b60019150506200061a565b60ff84111562000590576200058f620006c2565b5b8360020a915084821115620005aa57620005a9620006c2565b5b506200061a565b5060208310610133831016604e8410600b8410161715620005eb5782820a905083811115620005e557620005e4620006c2565b5b6200061a565b620005fa848484600162000489565b92509050818404811115620006145762000613620006c2565b5b81810290505b9392505050565b60006200062e8262000682565b91506200063b8362000682565b9250817fffffffffffffffffffffffffffffffffffffffffffffffffffffffffffffffff0483118215151615620006775762000676620006c2565b5b828202905092915050565b6000819050919050565b60006002820490506001821680620006a557607f821691505b60208210811415620006bc57620006bb62000720565b5b50919050565b7f4e487b7100000000000000000000000000000000000000000000000000000000600052601160045260246000fd5b7f4e487b7100000000000000000000000000000000000000000000000000000000600052601260045260246000fd5b7f4e487b7100000000000000000000000000000000000000000000000000000000600052602260045260246000fd5b60008160011c9050919050565b61198f806200076c6000396000f3fe608060405234801561001057600080fd5b50600436106101375760003560e01c806356562b82116100b8578063a9059cbb1161007c578063a9059cbb1461036a578063b88a802f1461039a578063b9750acf146103b8578063dd62ed3e146103c2578063e2eb41ff146103f2578063f6b4dfb41461042457610137565b806356562b821461029e5780636f567ab9146102ce57806370a08231146102ec57806373f273fc1461031c57806395d89b411461034c57610137565b806327e235e3116100ff57806327e235e3146101f6578063285ae2fb14610226578063313ce56714610244578063322e9f041461026257806346bb28331461028057610137565b806306fdde031461013c57806308fd1f891461015a578063095ea7b31461017857806318160ddd146101a857806323b872dd146101c6575b600080fd5b610144610442565b6040516101519190611358565b60405180910390f35b6101626104d0565b60405161016f91906113fa565b60405180910390f35b610192600480360381019061018d91906111e5565b610510565b60405161019f919061133d565b60405180910390f35b6101b0610602565b6040516101bd91906113fa565b60405180910390f35b6101e060048036038101906101db9190611196565b610608565b6040516101ed919061133d565b60405180910390f35b610210600480360381019061020b9190611131565b610830565b60405161021d91906113fa565b60405180910390f35b61022e610848565b60405161023b91906113fa565b60405180910390f35b61024c61084e565b60405161025991906113fa565b60405180910390f35b61026a610854565b604051610277919061133d565b60405180910390f35b610288610a65565b6040516102959190611322565b60405180910390f35b6102b860048036038101906102b39190611131565b610a8b565b6040516102c5919061133d565b60405180910390f35b6102d6610af7565b6040516102e3919061133d565b60405180910390f35b61030660048036038101906103019190611131565b610bc6565b60405161031391906113fa565b60405180910390f35b61033660048036038101906103319190611131565b610c0f565b60405161034391906113fa565b60405180910390f35b610354610c27565b6040516103619190611358565b60405180910390f35b610384600480360381019061037f91906111e5565b610cb5565b604051610391919061133d565b60405180910390f35b6103a2610e1d565b6040516103af919061133d565b60405180910390f35b6103c0611011565b005b6103dc60048036038101906103d7919061115a565b611072565b6040516103e991906113fa565b60405180910390f35b61040c60048036038101906104079190611131565b611097565b60405161041b93929190611415565b60405180910390f35b61042c6110e1565b6040516104399190611322565b60405180910390f35b6000805461044f90611779565b80601f016020809104026020016040519081016040528092919081815260200182805461047b90611779565b80156104c85780601f1061049d576101008083540402835291602001916104c8565b820191906000526020600020905b8154815290600101906020018083116104ab57829003601f168201915b505050505081565b600080429050600062015180826104e791906117ab565b9050600081836104f791906116ba565b9050620151808161050891906114be565b935050505090565b600081600860003373ffffffffffffffffffffffffffffffffffffffff1673ffffffffffffffffffffffffffffffffffffffff16815260200190815260200160002060008573ffffffffffffffffffffffffffffffffffffffff1673ffffffffffffffffffffffffffffffffffffffff168152602001908152602001600020819055508273ffffffffffffffffffffffffffffffffffffffff163373ffffffffffffffffffffffffffffffffffffffff167f8c5be1e5ebec7d5bd14f71427d1e84f3dd0314c0f7b2291e5b200ac8c7c3b925846040516105f091906113fa565b60405180910390a36001905092915050565b60045481565b60008161061485610bc6565b1015610655576040517f08c379a000000000000000000000000000000000000000000000000000000000815260040161064c9061137a565b60405180910390fd5b81600860008673ffffffffffffffffffffffffffffffffffffffff1673ffffffffffffffffffffffffffffffffffffffff16815260200190815260200160002060003373ffffffffffffffffffffffffffffffffffffffff1673ffffffffffffffffffffffffffffffffffffffff168152602001908152602001600020541015610714576040517f08c379a000000000000000000000000000000000000000000000000000000000815260040161070b9061139a565b60405180910390fd5b81600760008573ffffffffffffffffffffffffffffffffffffffff1673ffffffffffffffffffffffffffffffffffffffff16815260200190815260200160002060008282546107639190611468565b9250508190555081600760008673ffffffffffffffffffffffffffffffffffffffff1673ffffffffffffffffffffffffffffffffffffffff16815260200190815260200160002060008282546107b991906116ba565b925050819055508273ffffffffffffffffffffffffffffffffffffffff168473ffffffffffffffffffffffffffffffffffffffff167fddf252ad1be2c89b69c2b068fc378daa952ba7f163c4a11628f55a4df523b3ef8460405161081d91906113fa565b60405180910390a3600190509392505050565b60076020528060005260406000206000915090505481565b60065481565b60035481565b6000803390506000600960008373ffffffffffffffffffffffffffffffffffffffff1673ffffffffffffffffffffffffffffffffffffffff16815260200190815260200160002060000160009054906101000a900463ffffffff1663ffffffff161415610980576040518060600160405280600163ffffffff168152602001600163ffffffff1681526020016000815250600960008373ffffffffffffffffffffffffffffffffffffffff1673ffffffffffffffffffffffffffffffffffffffff16815260200190815260200160002060008201518160000160006101000a81548163ffffffff021916908363ffffffff16021790555060208201518160000160046101000a81548163ffffffff021916908363ffffffff160217905550604082015181600101559050505b61098981610a8b565b15610a5c576000600354600a61099f9190611542565b60196109ab9190611660565b905080600a60008473ffffffffffffffffffffffffffffffffffffffff1673ffffffffffffffffffffffffffffffffffffffff16815260200190815260200160002060008282546109fc9190611468565b92505081905550610a0b6104d0565b600960008473ffffffffffffffffffffffffffffffffffffffff1673ffffffffffffffffffffffffffffffffffffffff16815260200190815260200160002060010181905550600192505050610a62565b60009150505b90565b600560009054906101000a900473ffffffffffffffffffffffffffffffffffffffff1681565b600080610a966104d0565b905080600960008573ffffffffffffffffffffffffffffffffffffffff1673ffffffffffffffffffffffffffffffffffffffff168152602001908152602001600020600101541015610aec576001915050610af2565b60009150505b919050565b600080339050600560009054906101000a900473ffffffffffffffffffffffffffffffffffffffff1673ffffffffffffffffffffffffffffffffffffffff168173ffffffffffffffffffffffffffffffffffffffff161415610bbd5760006001610b5f6104d0565b610b6991906116ba565b905080600960008473ffffffffffffffffffffffffffffffffffffffff1673ffffffffffffffffffffffffffffffffffffffff16815260200190815260200160002060010181905550600192505050610bc3565b60009150505b90565b6000600760008373ffffffffffffffffffffffffffffffffffffffff1673ffffffffffffffffffffffffffffffffffffffff168152602001908152602001600020549050919050565b600a6020528060005260406000206000915090505481565b60018054610c3490611779565b80601f0160208091040260200160405190810160405280929190818152602001828054610c6090611779565b8015610cad5780601f10610c8257610100808354040283529160200191610cad565b820191906000526020600020905b815481529060010190602001808311610c9057829003601f168201915b505050505081565b600081610cc133610bc6565b1015610d02576040517f08c379a0000000000000000000000000000000000000000000000000000000008152600401610cf9906113ba565b60405180910390fd5b81600760008573ffffffffffffffffffffffffffffffffffffffff1673ffffffffffffffffffffffffffffffffffffffff1681526020019081526020016000206000828254610d519190611468565b9250508190555081600760003373ffffffffffffffffffffffffffffffffffffffff1673ffffffffffffffffffffffffffffffffffffffff1681526020019081526020016000206000828254610da791906116ba565b925050819055508273ffffffffffffffffffffffffffffffffffffffff163373ffffffffffffffffffffffffffffffffffffffff167fddf252ad1be2c89b69c2b068fc378daa952ba7f163c4a11628f55a4df523b3ef84604051610e0b91906113fa565b60405180910390a36001905092915050565b6000803390506000600a60008373ffffffffffffffffffffffffffffffffffffffff1673ffffffffffffffffffffffffffffffffffffffff16815260200190815260200160002054905080610e7130610bc6565b1015610eb2576040517f08c379a0000000000000000000000000000000000000000000000000000000008152600401610ea9906113da565b60405180910390fd5b80600760003073ffffffffffffffffffffffffffffffffffffffff1673ffffffffffffffffffffffffffffffffffffffff1681526020019081526020016000206000828254610f0191906116ba565b9250508190555080600760008473ffffffffffffffffffffffffffffffffffffffff1673ffffffffffffffffffffffffffffffffffffffff1681526020019081526020016000206000828254610f579190611468565b925050819055508173ffffffffffffffffffffffffffffffffffffffff163073ffffffffffffffffffffffffffffffffffffffff167fddf252ad1be2c89b69c2b068fc378daa952ba7f163c4a11628f55a4df523b3ef83604051610fbb91906113fa565b60405180910390a36000600a60008473ffffffffffffffffffffffffffffffffffffffff1673ffffffffffffffffffffffffffffffffffffffff1681526020019081526020016000208190555060019250505090565b600560009054906101000a900473ffffffffffffffffffffffffffffffffffffffff1673ffffffffffffffffffffffffffffffffffffffff163373ffffffffffffffffffffffffffffffffffffffff1614156110705761106f611011565b5b565b6008602052816000526040600020602052806000526040600020600091509150505481565b60096020528060005260406000206000915090508060000160009054906101000a900463ffffffff16908060000160049054906101000a900463ffffffff16908060010154905083565b600260009054906101000a900473ffffffffffffffffffffffffffffffffffffffff1681565b6000813590506111168161192b565b92915050565b60008135905061112b81611942565b92915050565b60006020828403121561114357600080fd5b600061115184828501611107565b91505092915050565b6000806040838503121561116d57600080fd5b600061117b85828601611107565b925050602061118c85828601611107565b9150509250929050565b6000806000606084860312156111ab57600080fd5b60006111b986828701611107565b93505060206111ca86828701611107565b92505060406111db8682870161111c565b9150509250925092565b600080604083850312156111f857600080fd5b600061120685828601611107565b92505060206112178582860161111c565b9150509250929050565b61122a816116ee565b82525050565b61123981611700565b82525050565b600061124a8261144c565b6112548185611457565b9350611264818560208601611746565b61126d81611869565b840191505092915050565b6000611285600f83611457565b915061129082611887565b602082019050919050565b60006112a8601183611457565b91506112b3826118b0565b602082019050919050565b60006112cb601383611457565b91506112d6826118d9565b602082019050919050565b60006112ee601083611457565b91506112f982611902565b602082019050919050565b61130d8161172c565b82525050565b61131c81611736565b82525050565b60006020820190506113376000830184611221565b92915050565b60006020820190506113526000830184611230565b92915050565b60006020820190508181036000830152611372818461123f565b905092915050565b6000602082019050818103600083015261139381611278565b9050919050565b600060208201905081810360008301526113b38161129b565b9050919050565b600060208201905081810360008301526113d3816112be565b9050919050565b600060208201905081810360008301526113f3816112e1565b9050919050565b600060208201905061140f6000830184611304565b92915050565b600060608201905061142a6000830186611313565b6114376020830185611313565b6114446040830184611304565b949350505050565b600081519050919050565b600082825260208201905092915050565b60006114738261172c565b915061147e8361172c565b9250827fffffffffffffffffffffffffffffffffffffffffffffffffffffffffffffffff038211156114b3576114b26117dc565b5b828201905092915050565b60006114c98261172c565b91506114d48361172c565b9250826114e4576114e361180b565b5b828204905092915050565b6000808291508390505b600185111561153957808604811115611515576115146117dc565b5b60018516156115245780820291505b80810290506115328561187a565b94506114f9565b94509492505050565b600061154d8261172c565b91506115588361172c565b92506115857fffffffffffffffffffffffffffffffffffffffffffffffffffffffffffffffff848461158d565b905092915050565b60008261159d5760019050611659565b816115ab5760009050611659565b81600181146115c157600281146115cb576115fa565b6001915050611659565b60ff8411156115dd576115dc6117dc565b5b8360020a9150848211156115f4576115f36117dc565b5b50611659565b5060208310610133831016604e8410600b841016171561162f5782820a90508381111561162a576116296117dc565b5b611659565b61163c84848460016114ef565b92509050818404811115611653576116526117dc565b5b81810290505b9392505050565b600061166b8261172c565b91506116768361172c565b9250817fffffffffffffffffffffffffffffffffffffffffffffffffffffffffffffffff04831182151516156116af576116ae6117dc565b5b828202905092915050565b60006116c58261172c565b91506116d08361172c565b9250828210156116e3576116e26117dc565b5b828203905092915050565b60006116f98261170c565b9050919050565b60008115159050919050565b600073ffffffffffffffffffffffffffffffffffffffff82169050919050565b6000819050919050565b600063ffffffff82169050919050565b60005b83811015611764578082015181840152602081019050611749565b83811115611773576000848401525b50505050565b6000600282049050600182168061179157607f821691505b602082108114156117a5576117a461183a565b5b50919050565b60006117b68261172c565b91506117c18361172c565b9250826117d1576117d061180b565b5b828206905092915050565b7f4e487b7100000000000000000000000000000000000000000000000000000000600052601160045260246000fd5b7f4e487b7100000000000000000000000000000000000000000000000000000000600052601260045260246000fd5b7f4e487b7100000000000000000000000000000000000000000000000000000000600052602260045260246000fd5b6000601f19601f8301169050919050565b60008160011c9050919050565b7f62616c616e636520746f6f206c6f770000000000000000000000000000000000600082015250565b7f616c6c6f77616e636520746f6f206c6f77000000000000000000000000000000600082015250565b7f4e6f7420656e6f7567682062616c616e63652e00000000000000000000000000600082015250565b7f726573657276657320746f6f206c6f7700000000000000000000000000000000600082015250565b611934816116ee565b811461193f57600080fd5b50565b61194b8161172c565b811461195657600080fd5b5056fea2646970667358221220ddbc2c97c708f4158c00cc14d52bebcc054d4bf96b433cacd29802157bcd4dae64736f6c63430008020033",
  "linkReferences": {},
  "deployedLinkReferences": {}
}